:020000040800F2
:1000000000070020F102000801D100089DD000087F
:10001000DDD000089DD00008BDD00008F302000824
:10002000F3020008F3020008F30200085DFF000875
:10003000F3020008F3020008F3020008F3020008CC
:10004000F3020008F3020008F3020008F3020008BC
:10005000F3020008F30200082D490108594901087C
:1000600085490108B1490108DD490108ED0301088E
:1000700015040108410401086D04010899040108F0
:10008000C1040108ED040108F30200086DCE000868
:10009000F3020008E5CE0008F3020008094A01084F
:1000A000F3020008F3020008F3020008F30200085C
:1000B000F3020008F3020008F3020008F30200084C
:1000C000F3020008F3020008F3020008F30200083C
:1000D000F3020008F3020008F3020008F30200082C
:1000E000814A0108F3020008F3020008F302000845
:1000F000F3020008F3020008F302000819050108E2
:10010000F3020008F3020008094B0108F30200089B
:10011000F3020008F3020008F3020008F3020008EB
:10012000450501086D05010899050108C505010887
:10013000F10501084D0A0108F3020008F302000866
:10014000F3020008F3020008F3020008F3020008BB
:10015000190601084506010871060108F3020008A6
:10016000F3020008F3020008F3020008F30200089B
:10017000F30200087D3C0108F3020008F3020008C6
:10018000F3020008F3020008F3020008F30200087B
:10019000F3020008F3020008F3020008F30200086B
:1001A000F3020008F3020008F3020008F30200085B
:1001B000F3020008F3020008F3020008F30200084B
:1001C000F3020008F3020008F3020008F30200083B
:1001D000F3020008693C0108F3020008F30200087A
:1001E000F3020008F3020008F3020008F30200081B
:1001F000F3020008F3020008F3020008F30200080B
:10020000F3020008F3020008F3020008F3020008FA
:10021000F3020008F3020008F3020008F3020008EA
:10022000F3020008F3020008F3020008F3020008DA
:10023000F3020008F3020008F3020008F3020008CA
:10024000F3020008F3020008F3020008F3020008BA
:10025000F3020008F3020008F3020008F3020008AA
:10026000F3020008F3020008F3020008F30200089A
:10027000F3020008F3020008F3020008F30200088A
:10028000F3020008F3020008F3020008F30200087A
:10029000F3020008F3020008F3020008F30200086A
:1002A000F3020008F3020008F3020008F30200085A
:1002B000F3020008F3020008F3020008F30200084A
:1002C000F3020008F3020008F3020008F30200083A
:1002D000F3020008F3020008F3020008F30200082A
:1002E000C50600084D1C00087DBC00080000000089
:1002F00002E000F000F8FEE772B6374880F30888A5
:10030000364880F3098836483649086040F20000D4
:10031000CCF200004EF63471CEF200010860BFF35B
:100320004F8FBFF36F8F40F20000C0F2F0004EF627
:100330008851CEF200010860BFF34F8FBFF36F8F7B
:100340004FF00000E1EE100A4EF63C71CEF20001D3
:100350000860062080F31488BFF36F8F12F0F6FD5B
:1003600014F0FCF84FF055301F491B4A91423CBF36
:1003700041F8040BFAE71D49184A91423CBF41F885
:10038000040BFAE71A491B4A1B4B9A423EBF51F82D
:10039000040B42F8040BF8E700201849184A914270
:1003A0003CBF41F8040BFAE712F012FE14F0F8F823
:1003B000144C154DAC4203DA54F8041B8847F9E796
:1003C00000F0C2F8114C124DAC4203DA54F8041B91
:1003D0008847F9E712F0FABD00070020002300204B
:1003E0000000000808ED00E00001002000070020E8
:1003F00070A3010800230020E8230020E823002048
:10040000A4780020E0020008EC020008EC020008DA
:10041000EC0200082DE9F04F2DED108AC1F80CD048
:10042000D0F80CD0BDEC108ABDE8F08F002383F328
:1004300011882846A047002011F0C2FEFEE711F007
:1004400073FD00DFFEE7000001F0FF01102A2BDB47
:1004500010F0070F08D010F8013B013A8B422DD065
:1004600010F0070F42B3F6D1F0B441EA012141EA9E
:10047000014122F007047FF000070023F0E8025654
:10048000083C85EA010586EA010685FA47F5A3FAE4
:1004900087F586FA47F6A5FA87F68EB9EED1F0BC55
:1004A00001F0FF0102F0070232B110F8013B013AFE
:1004B00083EA010313B1F8D1002070470138704777
:1004C000002D06BF35460338073815F0010F07D158
:1004D000013015F4807F02BF013015F4C03F0130B8
:1004E000F0BC0138704700BF08B503681B680021E5
:1004F000984708BD03494163034A426381608260B3
:10050000704700BF308E0108DC610108012800D06F
:1005100070474FF6FF739942FAD110B5074C04F1BA
:1005200008000CF095FD04F134000CF091FD044A34
:100530000449204614F022FB10BD00BFE823002030
:10054000EC560020F50400082DE9F04182B001F0DE
:1005500047FC02F089F902F02BFB4F4801F0CEFE78
:1005600012F086FC054612F0E7FC0646A8B94B4B94
:100570009D4234D001339D4234D025F0FF02484BD8
:100580009A4203D0074641F2883408E0E8B201F00D
:1005900051FA374642F2107401E00746002401F098
:1005A0004FFA08B10024274602F056FE8046E0B913
:1005B000B8F1000F4BD13B4B1B684BB3D3F810C0C5
:1005C0000D23394A4FF480713848604414F028FBF9
:1005D000024680B13649304801F0C8FE3CE007468B
:1005E0000024DCE700240127D9E7032000F046F9C6
:1005F00000242746DCE72B4B196891F8642091F81A
:100600006530496900912B49234801F0AFFE23E092
:10061000294B1B6803B3D3F810C00D23224A4FF4B3
:1006200080712248604414F0FBFA024620B1204950
:10063000194801F09BFE0FE01F4B19680A7E4B7EA4
:10064000496900911B49144801F090FE04E04246BC
:100650001A49114801F08AFE194B9D420CBF002631
:1006600006F0010686B9002012F00EFC8FB902F0E8
:1006700073FA01F025FA084801F01AFE204600F04E
:100680008BF900F019F9F9E712F04EFC0024274627
:10069000E9E700F011F9EAE7E8230020010007B0DC
:1006A000000008B004510020906101080000040817
:1006B000A0610108A461010808510020C06101087F
:1006C000263A09B008B54FF6FF710120FFF71EFF6B
:1006D00008BD00BF10B584468E46BFF34F8FBFF3F1
:1006E0006F8F1F4B0022C3F88420BFF34F8F5A69CE
:1006F00022F480325A61BFF34F8FD3F88040C4F3A5
:100700004E3000E01846C4F3C90243F6E07303EA32
:10071000401343EA82731249C1F874321346013A16
:10072000002BF2D1431E0028ECD1BFF34F8FBFF353
:100730006F8FBFF34F8FBFF36F8F4A6922F4003280
:100740004A610022C1F85022BFF34F8FBFF36F8F71
:10075000302383F31188E5468CF30888704710BD79
:1007600000ED00E000B583B0019004210DEB010025
:1007700002F06CF803B05DF804FB00BF00B583B075
:1007800041F21203ADF80430022101A802F05EF834
:1007900003B05DF804FB00BF00B583B041F2123333
:1007A000ADF80430022101A802F050F803B05DF862
:1007B00004FB00BF00B583B041F21213ADF8043062
:1007C000022101A802F042F803B05DF804FB00BF6B
:1007D00008B5C0EB401300EB8300C00011F0F8FC3B
:1007E00008BD00BF08B5302383F311881F4B1B6879
:1007F00013B11E4811F0A2FD00231D4A4FF47A7177
:100800001A4811F08DFD002383F3118801E00133B4
:10081000DBB2012B0BD8174A52F82320002AF6D05E
:10082000144951F82320013A41F82320EFE7124BF5
:100830001B7813B90F4B5B6823B10F4B1B78032B4D
:1008400007D008BD022002F0DBF80A4B32225A60C2
:10085000F3E7084B5B68002BF3D1022002F0D0F8DD
:10086000044B4FF47A725A60EBE700BF3425002046
:10087000E5070008542600204C25002008B50C4B45
:100880001870032806D8DFE800F00A06020E0220DE
:1008900002F0B4F808BD022002F0AEF8FAE7054B0A
:1008A00000225A60F6E7034B00225A60F2E700BFCD
:1008B0004C2500205426002008B5314801F034FDB5
:1008C00002F0CAFC034650B9072B0CD82D4A52F847
:1008D0002320B2F1FF3F05D00133DBB2F4E7032060
:1008E000FFF7CCFF08BD274B5B68274A9342F9D935
:1008F000264A9168234A0A449342F3D212F0FAFA44
:10090000002001F0DDFF0220FFF7B8FF204B9A6CBA
:1009100000229A64196F1A67196FD96CDA64596FDB
:100920005A67596F196D1A65996F9A679B6F194BC2
:10093000D3F8802042F00062C3F88020D3F88020F2
:1009400022F00062C3F88020D3F88020D3F8802002
:1009500042F00072C3F88020D3F8802022F00072A9
:10096000C3F88020D3F8803072B6064B4FF0E022F7
:10097000C2F8083D59681868FFF7ACFEB2E700BF3F
:10098000E823002000000408FFFF030800230020E4
:1009900000450258004402582DE9F04F91B0054639
:1009A000B84BD3F808A02022FF210DEB020002F083
:1009B00075F8B54B1B787BB10DB1B44B1D60B44BD2
:1009C0001B78032B21D12C460026B0463746B14672
:1009D000012002F013F826E0AB4B01221A70AD4B58
:1009E00000221A60302282F311881B6813B1A948D3
:1009F00011F0A4FC0023A84A4FF47A71A54811F025
:100A00008FFC002383F31188D6E70020FFF736FF21
:100A1000D9E7002001F0FAFE0290029B002B0BDBCD
:100A2000029B002B0BDA002CF3D0984B1B68002B99
:100A3000EFD111B0BDE8F08F01F092F8F0E701209E
:100A400001F0DAFF029B213B1F2BC1D801A252F813
:100A500023F000BFD50A0008F90A0008970B000828
:100A6000D1090008D1090008D1090008170C0008B5
:100A7000030E0008170D00087B0D00089F0D0008ED
:100A8000C30D0008D1090008E10D0008D1090008D4
:100A9000570E0008E30A0008D1090008970E000865
:100AA000CD0D0008E30A0008D10900087B0D0008FD
:100AB000D1090008D1090008D1090008D1090008AE
:100AC000D1090008D1090008D1090008D10900089E
:100AD000970B0008022001F099FE202840F0768153
:100AE000012702F02FF827B108F00B030B2B00F0C1
:100AF000F181FFF743FE6BE74FF47A7001F086FE59
:100B0000B0F1000BC0F26281022001F07FFE2028CC
:100B100040F05C810BF1FF33052B00F2DD81DFE853
:100B200003F003151A1F243505230393042103A89A
:100B300001F08CFE0BF1FF30012303FA00F040EAD4
:100B400008085FFA88F84FF00009CAE704214D4809
:100B500001F07CFEEEE70421504801F077FEE9E762
:100B600004214F4801F072FEE4E74FF00709B9F1A4
:100B70000A0FDFD84FEA890001F0A6FE0390042196
:100B800003A801F063FE09F10109F0E704214548DB
:100B900001F05CFECEE7002F00F0188108F00B0397
:100BA0000B2B40F01381022001F030FE202840F092
:100BB0000D81012001F084FE0220FFF75FFE002678
:100BC000304601F091FE044668B10299402914BFF5
:100BD00000210121304601F0A3FE002800F08181B0
:100BE0000136B6B2ECE70120FFF748FEA246254BDE
:100BF0009B68534509D9504601F066FEB0F1FF3FAE
:100C000040F074810AF1040AF1E70020FFF736FE94
:100C10003E46A24665E7002F00F0D88008F00B039F
:100C20000B2B40F0D3800220FFF728FE322001F08A
:100C3000EDFDB0F1000BC0F2C980CDF800B01BF0A3
:100C4000030F40F0C3800BEB0A030E4A92689342F5
:100C500000F2BC80BBF5807F00F2B88000230194D5
:100C60001C46A34522DD4FF47A7001F0CFFD0290BF
:100C7000029B002BC0F23381029A0B4B1A550134B0
:100C8000EFE700BF0023002050260020542600205C
:100C90004C25002034250020E5070008042300200F
:100CA000082300200C23002050250020019CC82090
:100CB00001F0ACFD202840F08980BAF11F0F15D853
:100CC000CAF120039B4500D900932AF003009DF848
:100CD000003000931A4686490DF1200C604401F063
:100CE000A3FE009AFF21824801F0D8FE5A46BBF1CC
:100CF000000F0DDB4FEAA20BC2F387027C4950467E
:100D000001F0D6FE002800F0EE800AEB8B0AE8E640
:100D10000BF10302EEE7022001F078FD202855D107
:100D200001F010FE002851D04FF0000B00945C46FB
:100D30000BE0584601F0C8FD0390042203A92046A9
:100D400002F0D0F904460BF1040B6A4B9B685B453B
:100D50000ED9BBF11F0FECD8089BB3F1FF3FE8D0D1
:100D60002BF0030310AA134453F8203C0393E4E749
:100D70002046009CFFF7F6FCB3E6002303936421B2
:100D800003A801F057FD08BB022001F03FFD202819
:100D90001CD1039801F0CEFDFFF7E4FCA1E600238F
:100DA0000393642103A801F045FD78B9022001F006
:100DB0002DFD20280AD1039801F0BEFDFFF7D2FCDB
:100DC0008FE6022001F022FD202804D006B92C462F
:100DD000FFF7E2FCFCE501F0C7FDFFF7C3FC80E68E
:100DE000022001F013FD2028F0D103A9142001F006
:100DF000C1FD8346FFF7B6FC594603A801F026FD66
:100E00006FE6322001F002FDB0F1000BDEDB1BF0DB
:100E1000030FDBD10BEB0903364A92689342D5D816
:100E2000022001F0F3FC2028D0D15B46BBF1000F7B
:100E30000EDB9B1003F1FF3B002B7FF752AE4846C1
:100E400001F042FDFFF78EFC09F104095B46F1E772
:100E50000BF10303EDE74FF47A7001F0D7FC202883
:100E6000B4D101F06FFD00283DD0089BB3F1FF3FE6
:100E70000BD0082208A9002001F01AFE98B3202206
:100E8000FF210DEB020001F009FEFFF777FC642063
:100E9000FFF79EFCCDE5002F98D008F00B030B2B3D
:100EA00094D100230393642103A801F0C3FC00281C
:100EB0008CD1022001F0AAFC202887D1FFF75EFC2C
:100EC0000520FFF785FC039801F070FE01F03AFE63
:100ED00000247DE500240CE64FF0000976E7019C34
:100EE00074E73E460024FFF765FC71E53E46FAE7ED
:100EF0005025002000230020094A136899B21B0CDA
:100F000049F2690000FB01331360064B186882B296
:100F1000000C44F2506101FB0200186080B270477F
:100F2000142300201023002010B50446FFF7E4FF2F
:100F3000B0FBF4F304FB130080B210BD024A026060
:100F4000024A0260704700BF308E0108DC61010870
:100F500070B50E4614461D460EF01AFB60B9022D00
:100F600008BF012C0CBF0120002004D118A3D3E935
:100F70000023C6E9002370BD282C1FD00CD8012CFB
:100F800015D0052C06D114A3D3E90023C6E900230C
:100F90000120F0E70020EEE7302C06D110A3D3E9C2
:100FA0000023C6E900230120E5E70020E3E70EA3C4
:100FB000D3E90023C6E900230120DCE70CA3D3E931
:100FC0000023C6E900230120D5E700BFAFF300806E
:100FD000401DA12026812A0BF017304A39059E5664
:100FE00078F6339F93CACD8D9E6AC421818A46EEDE
:100FF00026417272DF25D7B710B403460022026083
:1010000042608260C260044C07CC186059609A60EC
:101010005DF8044B704700BF00E8F11F70B58AB05F
:1010200006460D460CF07AF804464FF4C870FFF7F8
:101030007BFF044404F51674174B1C60EB7E23B948
:10104000164B00221A700AB070BD05A9284601F09F
:101050001FFF0028F7D101A8FFF7CEFF9DF816402B
:10106000224601A90DF1170013F0CAFD48B90F2C53
:101070000BD80A4B1C70084A1368A3F5167313604B
:10108000E1E7064B00221A70DDE79DF814103046A8
:101090000EF076FAD7E700BF703600206D360020DC
:1010A0002DE9F043ADF54F7D80460E460DF5DE7916
:1010B00000276F9740F27512394670A801F0EEFCD8
:1010C0000CAC4FF4C4723946204601F0E7FC0CF03A
:1010D00025F82F4BA3FB003080092E4B186093E8B6
:1010E000070084E807000223237467740DF152009F
:1010F000FFF782FF042384F82030372384F821305F
:101100000DF1180C244D0FCDACE80F0095E803004D
:101110008CE80300172384F832310DF1180CBCE879
:101120000F00CDF86301CDF86711CDF86B21CDF834
:101130006F31DCF80000CDF87301BCF804209CF896
:101140000630ADF877218DF87931012249462046E5
:1011500001F088FD80B20590CDF810900397B37E22
:10116000029306F1190301930123009306A3D3E927
:101170000023F17E40460EF0C1FA0DF54F7DBDE82B
:10118000F08300BFAFF300809E6AC421818A46EEDF
:10119000D34D62105C260020F4610108F0B5FDB06B
:1011A00006460D462B4B1C7A6CBB07A9284601F05E
:1011B000B3FE002845D19DF81D70C82F41D84FF4CB
:1011C000A6620021234801F069FC032C0AD8220200
:1011D000204B4FF48A7101FB0433C3F8E42001343F
:1011E000E4B2F2E71B4C3A460DF11E0104F109008E
:1011F00001F01AFCE219002353729DF81C3023728F
:101200000BB9EA7E2272812200213AA801F046FC45
:101210005BAC012221463AA801F0BAFE80B20590EB
:10122000049400230393AB7E029305F11903019309
:101230002823009305A3D3E90023E97E30460EF06E
:101240005DFA7DB0F0BD00BFAFF300802641727241
:10125000DF25D7B7984B0020134BB3F82C358342CA
:1012600000D9704710B50446002101F059FB013444
:101270000D4BA3F82C450C4BB3F82C0501F034FBB7
:1012800088B1094BB3F82C0501F040FB58B9064C66
:101290000021B4F82C0501F043FBB4F82C350133E0
:1012A000A4F82C35E7E710BD984B00202DE9F0415C
:1012B000F0B00646274C94F8D8304FF48A7505FBF9
:1012C000004585F8DC30002785F8E870D8223946DB
:1012D0003AA801F0E3FB04F10908404601F0D4FB11
:1012E000C2B28DF8F020D5F8E4303A933B974146EE
:1012F0000DF1F10001F098FB06AD012229463AA854
:1013000001F070FE80B20590049501230393082339
:10131000029304F1D8030193302300930BA3D3E984
:101320000023217A0C480EF0E9F9B84203DC0020D2
:1013300070B0BDE8F0810BF0F1FE4FF48A7202FB51
:101340000646C6F8E0000120F2E700BF78F6339FBA
:1013500093CACD8D984B00207436002038B50BF021
:10136000DDFE0546002408E00532B3EB420F02D350
:10137000FFF79CFFF8B10134E4B2032C1BD80E4BED
:1013800093F8D900204400F003004FF48A7202FB66
:10139000003393F8E830002BEDD1074B02FB00330C
:1013A000D3F8E030002BE3D0EB1A034A1268F92A95
:1013B000DAD8FA22D8E738BD984B0020F0B58FB0C4
:1013C00000230A938DF834308DF835300B930C934D
:1013D00000242646002C41D101238DF80C30002337
:1013E0008DF80D3041F2D84204FB02F21D49551828
:1013F0005258976800200021CDE900010DF10D023F
:1014000003A92846B8479DF80C7027B3002306931C
:1014100007930893099341F2D84304FB03F3114A5D
:10142000D3585E690DF10E0304AA0AA92846B047F5
:1014300007AB0BAA92E8030083E803009DF8343061
:101440008DF824300A9B0693DDE9042306A906489B
:101450000EF056FB3E460134E4B2BBE7002EB7D196
:101460000FB0F0BDA836002074360020F0B589B06A
:1014700005460C4616461F4640F287220B4907A830
:1014800001F0F8FEBDF8403004930F9B03939DF8E4
:1014900038300293019700962A46234604480EF0FE
:1014A000CDF807A801F0F0FE09B0F0BD804B002098
:1014B0007436002010B58AB024480EF069F808B1DF
:1014C0000AB010BD0BF02AFE214B1B689842F7D3DF
:1014D0000BF024FE04464FF4C870FFF725FD0444CA
:1014E00004F516741A4B1C6000238DF82030194B3C
:1014F0001B7813B901238DF8203004A8FFF77CFD79
:10150000144B1978C1F11004E4B2062C00D906245A
:10151000224604AB19440DF1210001F085FA013493
:10152000029408AB0193182300930B4B012205A1F1
:10153000D1E90001FFF79AFF064B00221A70BFE7BE
:10154000AFF30080401DA12026812A0B74360020B5
:10155000703600206D3600206C36002010B586B045
:101560000BF0DCFD0F4BA3FB00239B090E4803602F
:1015700004AC0122214601F01DFC80B202900194CE
:1015800018230093094B40F2551204A1D1E9000140
:10159000FFF76CFF06B010BDAFF30080F1C6A7C126
:1015A000D068080FD34D62105C260020D050002078
:1015B00010B502460B46094C20460EF0D7F82046DF
:1015C0000DF0E6FF38B1064B1B7A2BB10322054B19
:1015D0005A71FFF7C3FF10BD0222F8E774360020EE
:1015E000984B00205C260020012800D0704738B5B9
:1015F0004FF6FF73994200D038BD00250D4C002DE9
:1016000007DB20460AF0DEFE04F5A6541834013D3F
:10161000F5E7094D2A460949002013F0AFFA084CB6
:1016200020460BF015FD2A460649204613F0A6FA7F
:10163000E2E700BFA8360020EC560020491600085B
:10164000804B00203D0F000838B50E4C0E4B9C42DD
:1016500017D0A4F5A654183C0C4B236041F2440368
:10166000E21812793AB9E5582DB1284601F014FE76
:10167000284613F089FA41F23000204401F00CFEB4
:10168000E4E738BD804B0020A83600209C8D01087F
:10169000F0B587B025480EF05DF8002839D0044633
:1016A000002302938DF814308DF8153003930493C2
:1016B000027B8DF8142003AA4068A16803C2226847
:1016C00042F0004202921D461C46D5B941F2D84371
:1016D00005FB03F3164A9E189B581F690BF022FD69
:1016E000144A82184FF00003009341F1000302A94D
:1016F0003046B8470028C8BF44F001040135EDB2B8
:10170000E3E744B90C4B1B78072B0BD801330A4A8B
:10171000137007B0F0BD05480EF020F8064B00220C
:101720001A70B7E701480EF019F8F2E77436002096
:10173000A836002040420F00D1500020CA7E9B4BAB
:101740001B7A9A4240F031812DE9F04700AF0846FC
:101750000024032C0CD8954B4FF48A7202FB0433FF
:1017600093F8DC20437E9A4207D00134E4B2F0E7DC
:10177000002323B9BD46BDE8F0870123F9E74FF404
:101780008A7104FB01F1E031884B19440A3101F000
:1017900055FC0028EED1854B4FF48A7202FB0434CD
:1017A000012384F8E8300BF0B9FCD4F8E030C31A18
:1017B000192B05D940F6B832934202D9134600E0FE
:1017C00019237A4AD2ED007AF8EE677A9FED787A9B
:1017D00027EE877A07EE903AF8EE677ADFED756AC2
:1017E00067EEA67A77EE277AFCEEE77AC2ED007A0A
:1017F0003CE013464FF48A7202FB0535002385F85E
:10180000E830C5F8E030C546684B5B689B0A013399
:10181000694A1381AEE7002042F8040B013B002B1C
:10182000F9DA2246304601F0FFF8604B5B68002B86
:101830004BD05E4B93F8D20001F056F88246002858
:1018400047D05A4BD3F8D430002B4ED0574BD3F857
:10185000D430234453454ED85FFA89F23146534B76
:10186000586801F025F900284CD1C5464F4B93F834
:10187000D9504FF48A7202FB053393F8E830002BFD
:10188000C2D0E846494A4FF48A7303FB0523D3F8D4
:10189000E41053689942ACD144494FF48A7305FB74
:1018A00003F3CA18B2F8EC40E21C4FEA9209E033A5
:1018B00019440E314A4609F1FF3392000732D2082B
:1018C000A8EBC20295466E46A9E7012000F0F8FF9A
:1018D000AFE70024354B1C7201F034F8204600F0CD
:1018E000EFFF354B0B221A818DE7304B93F8D20076
:1018F000FFF7B2FCAAE72D4B93F8D2000130FFF7B7
:10190000ABFCA9E7294B5A6822445A60D3F8D4604B
:101910002644C3F8D46093F8D20000F0E5FF864275
:101920000BD3224B93F8D220013283F8D220D3F884
:10193000D420A2EB0A02C3F8D420FF2C23D91B4CDD
:101940004FF48A7303FB0545002385F8E830C5F89A
:10195000E030D5F8E43003F58063C5F8E43094F85E
:10196000D900FFF7A3FCFFF793FE94F8D9300133B9
:101970005A4203F0030302F0030258BF534284F8B3
:10198000D930C54672E70024084B1C7200F0DAFF1C
:10199000204600F095FF01F05FFC074A108108B176
:1019A000C546E7E6FEF788FFFAE77047984B002048
:1019B0006666663FCDCCCC3D5C26002038B505463A
:1019C0000C460DF0E5FD50B1E38A282B1CD014D84D
:1019D000012B0FD121462846FFF762FB0CE0237E46
:1019E000022B09D1E38A012B06D121462846FFF7B5
:1019F00015FB01E0052B0CD038BD302BFCD1214666
:101A00002846FFF79BFEF7E721462846FFF7C6FB6F
:101A1000F2E7BFF34F8F0549CA6802F4E062044B56
:101A20001343CB60BFF34F8F00BFFDE700ED00E035
:101A30000400FA05014B1870704700BF68260020AB
:101A40004FF000531A68194B9A4201D0002070479A
:101A500010B51749174813F0A1FB08B1002010BDBD
:101A60004FF00054607DFFF7E5FF227D124B1A72A4
:101A70000023032B0AD819020F4A4FF48A7000FB87
:101A80000322C2F8E4100133DBB2F2E74FF0005456
:101A9000C92204F11601094800F0C6FFE022002126
:101AA000204600F0FBFF0120D9E700BF9AAD44C5F6
:101AB0000C62010816000020984B0020A14B00206A
:101AC00030B583B001F0C8FB1C4B188102225A715B
:101AD00000246CB941F2D84304FB03F318481A58A8
:101AE0005568012217491844A8470134E4B2F0E7C9
:101AF00000230193144B0093144B4FF4805214496C
:101B000014480DF021FD144B197899B90BF006FB20
:101B100004464FF4C870FFF707FA044404F516743E
:101B20000E4B1C6011F008FA10B1044B0F221A8101
:101B300003B030BD07480DF023FDE7E75C26002029
:101B4000A836002040420F00510F0008BD190008C0
:101B50006C26002074360020682600207036002095
:101B600008B50CE0114B18600BF0DCFAFFF720FD14
:101B700013E0C82010F02CFB0D4B1B7AA3B1FFF72C
:101B800087FDFFF71BFCFFF795FC0BF0C7FA074B2F
:101B90001B68C31AB3F57A7FE4D2054B1B7A002B7E
:101BA000E7D0FFF7DBFBE4E708BD00BFCC50002027
:101BB000984B00200FB430B5C5B048AC54F8045B66
:101BC0007C22002125A800F069FF002106917722E0
:101BD00007A800F063FF059423462A465A210DF119
:101BE000B6000BF057FA592800D95A208DF8B500E5
:101BF00006AC0122214625A801F004F980B202902A
:101C0000019418230093094B43F6FF7205A1D1E913
:101C10000001FFF72BFC45B0BDE8304004B0704731
:101C2000AFF30080759D040C8EA454D6C8500020DC
:101C300010B50446034B0360034B036012F0A4FF8E
:101C4000204610BD308E0108DC61010808B54FF652
:101C5000FF710120FFF7C8FC08BD00BF10B582B0BE
:101C600000EB800303EB830303F1320000F0070075
:101C7000C0F13A00C0B239334FEAD30E4F238DF88A
:101C800005308DF806304FF0000C8DF804C043E0AD
:101C90000021244B02245C830C46002938D14FF4E8
:101CA000800343EA841320498B611E4B0221198370
:101CB0000132D2B2072A2DD802EBCC039842E7D8E2
:101CC0001B1A1A49A1FB0341C90801EB810101EB71
:101CD00081018B421AD01549A1FB0341A3EBD1032B
:101CE0001349A1FB0341090901EB4101A3EBC10128
:101CF00002AC04EBD10111F8041C03F00703C3F19B
:101D0000080341FA03F303F00101C2E70121C0E730
:101D10000023C6E70CF1010CF44501D20022C9E70B
:101D200002B010BD00040258000802581F85EB5194
:101D3000ABAAAAAA10B5002435E00021254A4FF02D
:101D4000020EA2F81AE08E4601BB4FF4800242EA6E
:101D50008E1221498A611F4A022111830133DBB2AD
:101D6000072B15D803EBC002332AE6D9A2F13401C0
:101D70001A4AA2FB01E2D20802EB820202EB8202C3
:101D8000914201D10121D9E70021D7E70022DEE706
:101D90000130122815D80023E2E742F2107010F04B
:101DA00017FA0134E4B2092C12D8012240210A4862
:101DB0000EF05EFD0122022106480EF059FD4FF0A3
:101DC000640C63460CF1FF3C002BE6D00020E0E7FA
:101DD00010BD00BF00040258000802581F85EB51D7
:101DE00008B5FFF7A7FF0220FFF738FF08BD00BFC7
:101DF000704700BF0346002018626D2283F82E2032
:101E0000732283F82F20074A1A61074A5A61062273
:101E100083F82C2040F2DC529A840A2283F82D2089
:101E2000704700BFD5910008551E000800B585B069
:101E30000368186801F0CAFD1022694601F0B4FC7D
:101E400001460348FFF7B6FE05B05DF804FB00BF8E
:101E50001862010810B584B00C464CF2503201A94A
:101E60000A480FF0FBF840B16FF002000BE0628906
:101E7000616801A80FF078F82468002CF7D101A858
:101E80000EF0AAFF002004B010BD00BF10580020C3
:101E900030B585B00D46002201A911480FF0FAF8BF
:101EA00010B1002005B030BD4FF4C172BDF808106C
:101EB00002F030F90446286050B901A80EF0E6FFA0
:101EC0000120EFE76289616801A80FF063F82468D8
:101ED000002CF7D101A80EF0D9FF0120E2E700BFE6
:101EE0001058002030B59FB005460021084609F083
:101EF00015FC642000F086FD296826315B4801F05E
:101F0000A3FC5B4A1BAB07CA83E807000C221946F7
:101F1000002001F0CFF82B6883F829002B68C0F36C
:101F2000072283F82A202B68C0F3074083F82B0090
:101F3000686A40BB4F4801F047FC01F047FD1A902A
:101F40004D4801F041FC01F041FD19904B4801F072
:101F50003BFC01F03BFD18902B682633179317A923
:101F600047480FF06DF8474B0293474B019300230E
:101F7000009319AB18AA1AA9286808F0E5F870B1FF
:101F800042480BF0BFF801F021FD1A90E86A01F019
:101F90001DFD1890A86A01F019FD1990DCE70022D8
:101FA0003B49286808F0F0F800223A49286808F010
:101FB000EBF839490FA809F07FFE0FA809F084FE5D
:101FC0004FF0FF3301220AA915A80FF0C3FD022329
:101FD0001A4605A931480FF0BDFD03200FF0C6FDDC
:101FE00009E02F4809F056FB29462E4809F052FB1C
:101FF00014F0020F1ED14FF0FF300FF0F3FD044636
:1020000010F0010FF4D01E480FF060F8296891F825
:102010002D30C3F380039842EAD00028E1D0224853
:1020200009F038FB2946214809F034FBE0E7049821
:1020300002F00EF804A92868FFF72AFF0028DAD07A
:10204000049B002BF6D05B68988901F0B9FCB0F5D1
:10205000006F03D040F606039842E8D12968CB68A8
:10206000049898470028E5D0E1E700BF2062010806
:1020700000E8F11F3462010844620108506201085F
:102080001058002071B60008F51D00085C620108B8
:102090002D3B0008793D0008404B4C00285800209B
:1020A000013E0008F11D0008BD3D00082D1E00087E
:1020B00008B5FFF717FF00BF2DE9F04F83B080464A
:1020C0008A4600F0E1FC00F5806010F095FD01907B
:1020D000002850D00090444604E00134009B03F8EF
:1020E000015B009394F90050002D41D0A4EB08034C
:1020F00053453DD27B2DF0D104F101097D214846A5
:1021000012F032FE834618B1061B013E1C4D06E05C
:10211000009B03F8015B00934C46E3E70835194B3D
:102120009D421BD02F68384600F0AEFCB042F5D17E
:1021300032464946384600F081FC0028EED16968F5
:10214000009C204612F01EFE686800F09DFC2346AD
:10215000034400930BF10104012300E00023002B52
:10216000C0D1009B14F9012B03F8012B0093B9E7B0
:102170000023009A1370019803B0BDE8F08F00BFF0
:102180001823002030230020F0B583B00F464FF411
:10219000806010F031FD0646054600E025466423C8
:1021A00001220DF10701384601F068FA01280DD12E
:1021B0002C469DF9073004F8013BA31B032BEDDDF2
:1021C0000449E81E00F052FC0028E7D1304603B075
:1021D000F0BD00BF7862010870B584B004462020CD
:1021E00012F0D4FC064610B1002101F0BFF95022D4
:1021F0002849304601F00EFB1421304601F098FAD0
:102200001CE0002384F83030BFF34F8F2249CA68A6
:1022100002F4E062214B1343CB60BFF34F8F00BF4A
:10222000FDE7002384F831304FF47A7000F0EAFBC8
:10223000FEF742FB0FE003A801F026F81421304618
:1022400001F084FA054694F83030002BD9D194F887
:102250003130002BE5D1002DF0D0082012F096FC93
:102260000460456000900E4B3C220E4940F6F81089
:1022700010F012FD4FF41D7204F1080103A800F0E4
:10228000F9FF206A0028D6D0C36B23620FF052FFFB
:10229000F7E700BF8062010800ED00E00400FA05E6
:1022A000692700088862010808B5FFF795FF00BF9D
:1022B00010B582B0044601F003FB0EF0A9FE3420F5
:1022C00012F064FC20600094084B3C22084940F660
:1022D000F81010F0E1FC60600094064B3C220649C7
:1022E00040F6F81010F0D8FC02B010BDB120000884
:1022F00094620108A92200089C6201084FF0005373
:102300001A68084B9A4200D070474FF000535B6840
:10231000002BF9D043624FF000539A68C262DB6829
:102320008362F1E79AAD44C510B50C4801F04CFA50
:1023300001F04CFB4FF000546060094801F044FA92
:1023400001F044FBA060074801F03EFA01F03EFBBB
:10235000E06063680BB1044A226010BD346201087A
:1023600050620108446201089AAD44C50EB470B5CC
:1023700083B0044607AD55F8046B40F2B32200F178
:10238000340101A800F076FF00954C342B4632460C
:102390004FF4807120460AF07DFE21460548FFF784
:1023A00009FC01A800F070FF03B0BDE8704003B065
:1023B000704700BFA86201082DE9F047ADF5047D24
:1023C00007460E461546002402E0022C12D00124D6
:1023D000642301220DF10B01304601F04FF9012871
:1023E0002ED1013D9DF90B300D2BEED00A2B03D0E1
:1023F0000024EDE70324EBE7032C18BF012C18D1D0
:102400000134E4B2042CE3D169493846FFF7AEFF4A
:10241000012000F055FA0024204600F065FA8046BD
:1024200090B10021204600F07BFA20B10134A4B223
:10243000F2E70024CCE722465E493846FFF796FFD4
:102440000DF5047DBDE8F0870446A5420DD9204670
:1024500000F03AFAB0F1FF3F01D10434F5E722462B
:1024600055493846FFF782FFEAE725F00305B5F541
:10247000001F01D94FF40015002303939946A84586
:102480003AD2A5EB080ABAF5007F01D94FF4007AD9
:1024900042F21073524604A9304601F0EFF8041ED0
:1024A00029DD214614F0030F01D0544549D32246BB
:1024B000002C5ADBC2F3870204A9404600F0F8FA68
:1024C000A044642202FB08F2B2FBF5F2D4B23B4B0B
:1024D000A3FB0413DB0803EB8303A4EB430313F018
:1024E000FF0FCCD1A145CAD0224635493846FFF767
:1024F0003DFFA146C3E7039418F01F0402D0039BDD
:10250000002B34D000F01EFA002000F0D9F900F0C2
:10251000A3FE0246002839D0039B002B43D012F0C3
:1025200069FB006812F01CFE044612F063FB0368AE
:10253000019300942B46424622493846FFF716FF86
:102540007EE7634204F0030203F0030358BF5A42DC
:1025500042F21073C2F1040204A80144304601F0B3
:102560008DF80028A3DD0444A1E7E21CA2E74FF4A4
:102570000072FF2104A800F091FAC4F12002C2F316
:10258000870204A9404600F093FABBE7012387F8CD
:1025900031300D493846FFF7E9FE66220B493046D7
:1025A00001F020F84CE70A493846FFF7DFFE47E71D
:1025B000AC620108B8620108D4620108CDCCCCCC71
:1025C000F0620108786301080063010810630108E4
:1025D00098630108F0B583B006460D46FFF7D4FDB9
:1025E000044690F900305BB908B112F0CDFA2DB174
:1025F000284600F0CDFF284612F0C6FA03B0F0BD21
:102600003F225149284600F0EDFF07224F4920465E
:1026100000F014FA58B94E49204612F0BFFD0746A3
:102620004C49204612F0BAFD87BB002844D11B223A
:102630004949204600F002FA002852D00B224749AF
:10264000204600F0FBF910B9012386F83030002352
:10265000019301A9424809F067FB074696F830301C
:10266000002B5FD048223F49284600F0BBFF14B141
:10267000204612F089FA2DB1284600F089FF28463D
:1026800012F082FA384609F05BFBB7E707F1110058
:1026900012F09EFA024629463046FFF78DFE14B12D
:1026A000204612F071FA002DA8D0284600F070FFE5
:1026B000284612F069FAA1E7113012F089FA0246B1
:1026C00029463046FFF778FE14B1204612F05CFA36
:1026D000002D93D0284600F05BFF284612F054FAF4
:1026E0008CE740F2232206F13401684600F0C2FD77
:1026F0004C36304600F0C8F902463146284600F014
:1027000071FF684600F0C0FD14B1204612F03CFA9B
:10271000002D3FF473AF284600F03AFF284612F030
:1027200033FA6BE70199FFF7C7FC064600F0ACF9F6
:1027300002463146284600F055FF002E97D030461D
:1027400012F022FA93E700BFAC630108EC630108C2
:10275000F4630108086401081C6401083864010876
:10276000446401085064010870B582B004464168B1
:102770000068FFF72FFF25680A4BDE6814B120467A
:1027800012F002FA40F24D2205F1080101A800F012
:1027900071FD2B6AF3632E6201A800F075FD02B093
:1027A00070BD00BF485800202DE9F04107460E4695
:1027B00015460024E4B9124B93F90030B3F1FF3F02
:1027C00001D0A3420DD10F480368D3F82080C5EB98
:1027D000451305EB8303DB0032463946C04786428A
:1027E00002D00134E4B2E5E7074B1C70012004E09D
:1027F0004FF4FA700FF0ECFC0020BDE8F08100BF50
:1028000030230020085B00200051002000B583B079
:10281000024600238DF8073001210DF10700FFF774
:10282000C3FF20B19DF8070003B05DF804FB4FF033
:10283000FF30F9E708B50A460421FFF7B5FF08B1F4
:10284000002008BD4FF0FF30FBE700BF10B5844605
:102850000A4603480368DC69024B6146A04710BD85
:10286000085B0020A086010038B510F09BF8124BE1
:102870001880002406E010F091F804440F4A136811
:1028800001331360B4F5802F07D20B4B1B880B4A22
:1028900010688342EFD8002500E00025B5F5802FB1
:1028A00009D2054C2088013810F078F805442388B7
:1028B000013B2380F2E738BD02510020D4500020B4
:1028C00008B510F0DFF808BD014BC058704700BFD5
:1028D0000000040808B5034692000248184410F0AE
:1028E000CDF808BD0000040808B5064B1B88064A51
:1028F00012689B1A834201D8002008BD104410F0D2
:102900004DF8FAE702510020D450002008B5034BDF
:102910001B68184410F048F808BD00BFD4500020D0
:1029200008B5034B1B68184410F056F808BD00BFEB
:10293000D450002000207047014BC058704700BFA2
:1029400000E8F11F08B5074B93F824300BB90120BC
:1029500008BD0449002381F824300822086AFFF7E3
:10296000B9FFF5E7D8500020014B1868704700BF49
:102970000010005C10B51B4B1B68C3F30B044FEA3F
:10298000134C013801EB000E174B184A934211D03B
:102990001A88A24201D00833F7E75B680A4602E0D2
:1029A000013302F8010B724505D293F900000028AB
:1029B000F6D100E00A46724502D22C2302F8013B10
:1029C0000B4B00E004330B4CA34208D01C88644539
:1029D000F8D17245F6D2987802F8010BF2E7501A56
:1029E00010BD00BF0010005C342300204C230020E9
:1029F0000C6501081C650108704700BF704700BFE7
:102A0000704700BF38B504460AE02546412C28BF70
:102A100041254FF47A7005FB00F00FF0D9FB641BE1
:102A2000002CF2D138BD00BF002304E011F803C030
:102A300000F803C001339342F8D3704702E001303D
:102A40000131624690F9003043B191F900C063450D
:102A500004D102F1FF3C002AF1D162461AB191F98A
:102A60000000181A70470020704700BF01E00130D5
:102A7000013190F900301BB191F900209342F6D05A
:102A800091F90000181A70470346002000E0013059
:102A900013F9012B002AFAD1704700BF034602E068
:102AA00003F8011B624602F1FF3C002AF8D170478F
:102AB0002DE9F843814688461546214B93F824308A
:102AC00033B31F4A126A02EB8303834220D0FFF71D
:102AD00039FF0346E0B930E0194E96F82400C0F102
:102AE0000804AC4228BF2C46E4B2A7003A4641464F
:102AF00006EB8000FFF798FFB944B8442D1BEDB2F8
:102B000096F824301C44E4B286F82440082C0DD0FA
:102B100095B10B4B93F82430002BDDD10848C0F859
:102B200020902022FF21FFF7B9FFD5E7FFF70AFF2A
:102B300003460028ECD100E001231846BDE8F883E5
:102B4000D8500020024B93F90020024B1A707047B6
:102B5000005100203023002038B5114D28460EF0DA
:102B60004DFB104C214628460EF074FB2468D4F827
:102B70009020D2F8043843F00203C2F804384FF42E
:102B80007A70FFF73FFF084920460EF0B1FCD4F8F9
:102B90009020D2F8043823F00203C2F8043838BD7C
:102BA000085B0020DC970108E4970108704700BF2C
:102BB00010B5A0B071B600231A46194601200DF0D9
:102BC00003FE0024B4F5001F2AD2234B1B693BBB34
:102BD000214BD3F810311BBB036804F100629A60EB
:102BE0000368C3F80CD0036880225A6003684FF46E
:102BF000D0621A600268136843F001031360026830
:102C0000136823F01E03136003681B6813F0010FA1
:102C1000FAD1017B42683D238B4013608034D1E7B9
:102C20000DF00CFEB4F5001F02D361B620B010BD4C
:102C30000120FFF745FE0024084B1B88A34206D95C
:102C4000074B186820440FF0C7FE0134F4E700205A
:102C5000FFF736FEE9E700BF0020005202510020D6
:102C6000D45000202DE9F84380460E46914640F2AC
:102C7000791200213046FFF711FF43462022002140
:102C800030460CF0B9FE08F1040302222021304640
:102C90000CF0B2FE08F105030322222130460CF0AD
:102CA000ABFE08F106030322252130460CF0A4FEFA
:102CB00008F108031022282130460CF09DFE08F18F
:102CC00010030822382130460CF096FE08F111035B
:102CD0000822402130460CF08FFE08F11203082232
:102CE000482130460CF088FE08F1140320225021C0
:102CF00030460CF081FE08F1180340227021304666
:102D00000CF07AFE08F120073B460822B02130463D
:102D10000CF072FE08F121030822B82130460CF0B5
:102D20006BFEC025002408E03B1902330822294627
:102D300030460CF061FE083501340F2CF4D907F150
:102D400012030822294630460CF056FE05F108040D
:102D50000025BB7C9D420BD205F110033B4403339D
:102D60000822214630460CF047FE08340135F0E7D2
:102D7000B9F1000F10D0002598F832319D4214D2DD
:102D800005F59873434403330822214630460CF07E
:102D900033FE08340135EFE708F599730722214621
:102DA00030460CF029FE0734E5E7E01DC008BDE819
:102DB000F88300BF38B505460C4600212160C4F8F1
:102DC00003100346202220460CF016FE2B1D022283
:102DD000202120460CF010FE6B1D032222212046EC
:102DE0000CF00AFEAB1D0322252120460CF004FE48
:102DF00005F108031022282120460CF0FDFD0720D4
:102E000038BD00BF2DE9F04105460F4690467B22B4
:102E100000213846FFF742FE2B46032200213846A8
:102E20000CF0EAFD6B1C0522032138460CF0E4FD92
:102E30000824002608E0AB19023308222146384650
:102E40000CF0DAFD083401366B789E42F3D3B8F10A
:102E5000000F01D0002613E005F1210307222146CF
:102E600038460CF0C9FD0734F4E706F120032B4483
:102E700002330822214638460CF0BEFD08340136E4
:102E800095F821309E42F0D3E01DC008BDE8F081E6
:102E9000F0B583B007460E46047F00910023072259
:102EA00019460CF0ADFC731C00930023012207218E
:102EB00038460CF0A5FC3CB1BB8ADB00083BDB08C4
:102EC000B3700825002414E0B31C009300230522EE
:102ED000082138460CF094FC0D25F3E73319033331
:102EE000009300230822294638460CF089FC083557
:102EF0000134B3789C42F1D30735ED083B7F2BB109
:102F0000B88A401B18BF012003B0F0BDB88AA842A0
:102F10002CBF00200120F7E7F0B583B007460C4630
:102F2000057F00910023082219460CF069FC661CFD
:102F30003DB1BB8ADB00083BDB0863700825002439
:102F400013E0009600230822114638460CF058FC86
:102F50001025F4E733190133009300230822294692
:102F600038460CF04DFC0835013433789C42F1D3DF
:102F70000735ED083B7F2BB1B88A401B18BF0120F5
:102F800003B0F0BDB88AA8422CBF00200120F7E7AB
:102F9000F8B506460F461446812200213846FFF751
:102FA0007DFD33460822002138460CF025FD14B182
:102FB0000825002410E0731C0722082138460CF075
:102FC0001BFD0F25F5E73319023308222946384641
:102FD0000CF012FD0835013473789C42F3D3E81DE0
:102FE000C008F8BDF8B506460F461446CE220021AB
:102FF0003846FFF753FD33462822002138460CF0AF
:10300000FBFC083614B12825002410E033460822C2
:10301000282138460CF0F0FC3025F5E73319013350
:103020000822294638460CF0E7FC0835013433788D
:103030009C42F3D3E81DC008F8BD00BFF0B583B0D3
:1030400007460E46047F00910123102200210CF058
:10305000D7FB3CB1BB8ADB00103BDB08738010253B
:10306000002414E0B31C00930023092210213846E9
:103070000CF0C6FB1925F3E7331904330093002342
:103080000822294638460CF0BBFB0835013473880A
:103090009C42F1D30735ED083B7F2BB1B88A401B2A
:1030A00018BF012003B0F0BDB88AA8422CBF002091
:1030B0000120F7E74FF0000C944510D210B411F83E
:1030C0000C304340DBB2064C54F8233083EA102026
:1030D0000CF1010C9445F2D35DF8044B7047704736
:1030E0001C65010800B58E460AE040F3000C094952
:1030F0000CEA010181EA50000133DBB2072BF4D95D
:103100001346013A23B11EF8013B58400023F5E76E
:103110005DF804FB2083B8ED70B582B0214B6A46A0
:1031200093E8030082E8030008231F491F4811F0B9
:1031300077FD1F4B186038B30369B3F5E01F25D83E
:10314000418B40F23742914222D100F11806194AD0
:10315000024402F110018B421DD39B1AA3F110040B
:1031600012490020FFF7BEFF0546224631460020E7
:10317000FFF7B8FF0E4B1B689A68AA420DD1DB68B7
:1031800083420CD1002004E00A2002E00B2000E082
:103190000C2002B070BD1020FBE70D20F9E70D20D8
:1031A000F7E700BF1C690108DCFF1B0000000408F2
:1031B000085100200800FCF770B582B0214B6A4628
:1031C00093E8030082E8030008231F491F4811F019
:1031D00027FD1F4B186040B30369B3F5E01F26D8E5
:1031E000B0F8661040F23742914222D100F16406F5
:1031F000184A024402F15C018B421DD39B1AA3F1D1
:103200005C0412490020FFF76DFF05462246314657
:103210000020FFF767FF0E4B1B689A68AA420DD18A
:10322000DB6883420CD1002004E00A2002E00B207E
:1032300000E00C2002B070BD1020FBE70D20F9E784
:103240000D20F7E72869010890FF1B000000040823
:10325000045100200800FCF710B5FFF75DFF04469D
:1032600008B9204610BDFFF7A7FF0028F9D1044692
:10327000F7E700BF10B50446084621600B689B685D
:103280009847204610BD00BF10B50446006803688B
:10329000DB689847204610BD10B50446037C0BB18F
:1032A000204610BD00680FF0F1FCF9E7BFF35B8F1B
:1032B000C368BFF35B8FBFF35B8F8268BFF35B8F25
:1032C0009A4208D94268BFF35B8F8068BFF35B8F77
:1032D000101A18447047BFF35B8F8068BFF35B8F91
:1032E000181A7047BFF35B8F0023C360BFF35B8F77
:1032F000BFF35B8F8360BFF35B8F7047034640680B
:1033000000B97047BFF35B8F9A68BFF35B8FBFF361
:103310005B8FD968BFF35B8F914209D35868BFF3C5
:103320005B8FDB68BFF35B8FD21A013A1044E8E78A
:103330000020F4E738B505460C46FFF7B7FFA0427A
:1033400001D2002038BDBFF35B8FA968BFF35B8F4C
:103350000C446968B4FBF1F301FB1344BFF35B8FCA
:10336000AC60BFF35B8F0120ECE700BF70B5044693
:103370000E461546FFF7C2FFA84200D3284608B9FB
:10338000002070BD2368BFF35B8FE268BFF35B8FE3
:10339000134433606268BFF35B8FE368BFF35B8FF6
:1033A000D11A884207D971602168B1609B1A18440C
:1033B000F0600220E5E770600120E2E738B50546DD
:1033C0000C46FFF79BFFA04201D2002038BDBFF39F
:1033D0005B8FE968BFF35B8F0C446968B4FBF1F362
:1033E00001FB1344BFF35B8FEC60BFF35B8F0120E5
:1033F000ECE700BF2DE9F04385B081468846694679
:10340000FFF7B4FF0746002425460EE004AB03EBAC
:10341000C40656F80C2C08EB050156F8100CFFF703
:1034200003FB56F80C3C1D440134A742EEDC294650
:103430004846FFF7C3FF284605B0BDE8F08300BF4C
:10344000BFF35B8FC368BFF35B8FBFF35B8F826893
:10345000BFF35B8F9A4210D94368BFF35B8F8268DA
:10346000BFF35B8F9B1A0B6073B10368BFF35B8F75
:103470008068BFF35B8F18447047BFF35B8F82682F
:10348000BFF35B8F9B1AEEE700207047F0B583B067
:1034900007460E461546FFF709FF04460190A8426D
:1034A00000D32C4614B9002003B0F0BD01A9384662
:1034B000FFF7C6FF019B6BB1A34200D901943060B6
:1034C00001987060A0420DD23B68B360241AF4608A
:1034D0000220E9E73B68336074600023B360F36067
:1034E0000120E1E70120DFE72DE9F04184B08846C3
:1034F0006946FFF7CBFF0746002425460EE004ABE4
:1035000003EBC40656F80C2C56F8101C08EB05000B
:10351000FFF78AFA56F80C3C1D440134A742EEDC52
:10352000284604B0BDE8F08138B50546FFF7DCFF5A
:10353000044601462846FFF7FDFE204638BD00BF81
:1035400010B584B00446017042614FF0FF338361CF
:1035500011B1204604B010BD10460122039204238D
:10356000009303AB062107F07BFFF2E738B5044672
:103570000D4659B102210022022007F0B3FD024698
:1035800029462046FFF7DCFF204638BD0121F2E73F
:1035900010B504464069B0F1FF3F05D1A069B0F114
:1035A000FF3F04D1204610BD07F080FCF6E707F08E
:1035B0007DFCF7E74069B0F1FF3F10D000B585B062
:1035C000012303930422009203AB40F6FF7107F03E
:1035D00047FF013018BF012005B05DF804FB002053
:1035E000704700BF4069B0F1FF3F04D008B5202309
:1035F00007F02EFD08BD704710B588B006AB00225D
:1036000004E04FF0000C03F801CB0132072AF8D98F
:103610008469B4F1FF3F29D0B4F1FF3F28D063099A
:1036200004F01F00012202FA00F008AA02EB830353
:1036300053F8082C024343F8082C0F48A0FB013034
:1036400080090022029003924FF47A7303FB101159
:1036500003FB01F1049102AB0093134606A9601C21
:1036600007F084FD012804D0002002E04469D3E77C
:10367000002008B010BD00BFD34D6210F0B58DB072
:1036800005460E4617461946FFF7B6FF28B3102326
:103690000B93A869B0F1FF3F26D007AC0023079336
:1036A000089309930A930BAB0193009408233A46BD
:1036B000314607F065FC8646A446BCE80F0068600A
:1036C000A960EA602B61BEF100040FDDAB69B3F1C4
:1036D000FF3F16D120460DB0F0BD11F08BFA0B2341
:1036E00003604FF0FF34F5E76869D6E72B78002BCD
:1036F000F0D12B7F002BEDD0002CEBD100232B77CA
:10370000E8E71023029302AA03A9686907F0A2FE62
:1037100058B96B6823F0FF02039B23F0FF039A4222
:10372000D8D1AA68049B9A42D4D14FF0FF34D1E794
:103730004069B0F1FF3F06D008B507F0F1FBB0FAE1
:1037400080F0400908BD0020704700BF30B583B04D
:103750004369B3F1FF3F20D00446FFF74DFFF0B1BE
:103760001023019301AA211D606907F09DFA054607
:10377000B0F1FF3F15D0202011F008FA044618B12F
:103780002A460021FFF7DCFE24B1012323772046DF
:10379000FFF710FF204603B030BD0024FAE70024F5
:1037A000F8E70024F6E700BF30B583B001900C467F
:1037B000154600F00BF901902B46224601A9022084
:1037C00007F07CFE03B030BD00B583B00146002396
:1037D000019301AA022007F091FE019800F0F6F88B
:1037E00003B05DF804FB00BF38B50D461C4600234E
:1037F00023606360A360E360104600F0E1F860803E
:10380000022363702846FFF7DFFF00F0DFF86060F7
:1038100038BD00BF4369B3F1FF3F11D010B584B08C
:1038200004466B46FFF7E0FF2046FFF7C3FE102279
:103830006946606907F0F8FA20B9012004B010BDAC
:10384000002070470020F9E730B587B004460D46E8
:10385000FFF71AF9112802D0002007B030BD11225D
:10386000214601A811F086FC00248DF81540009433
:103870006A460E4901A811F0CFFC052C0FD880B183
:103880001022002111F0CAFDFF280CD828556A46E5
:103890000649002011F0C0FC0134E4B2EDE701203C
:1038A000DBE70020D9E70020D7E700BF9C610108D3
:1038B00008B50B460146014809F024FC34690108AB
:1038C00038B50024012042F21743984203D8400043
:1038D0000134E4B2F7E70FF0CDF9054600285ED0D9
:1038E000013C314B0622C3F89820C3F89C002F4AB4
:1038F00042EA4404C3F8A0400522C3F894205A6A5F
:1039000042F480325A620022C3F88420BFF34F8F02
:10391000D3F88040C4F34E3000E01846C4F3C90227
:1039200043F6E07303EA401343EA82731E49C1F889
:1039300074321346013A002BF2D1431E0028ECD119
:10394000BFF34F8FBFF36F8F194B1D6005F140021E
:10395000184B1A606035184B1D600123032B0AD8E1
:103960005A1E154951F8222002F2F45241F8232040
:1039700001339BB2F2E7104BDB6803F2F4530F4ABA
:1039800013600123012B0CD85A1E0C4951F8222038
:1039900002F2F45241F8232001339BB2F2E70020F7
:1039A00000E0012038BD00BF00ED00E001000C0385
:1039B0001C510020285100200C51002020510020D3
:1039C000030A43EA002080B2704700BF030203F4F9
:1039D0007F0343EA0063020A02F47F42134343EA8F
:1039E000106070476FF00B00704700BF70B516464F
:1039F0000A6843689A4212D004460D4636B163689D
:103A0000336055B12B686360012070BD054A40F2F8
:103A100025210548FFF74CFFF1E70023F3E70020DD
:103A2000F3E700BF446901087469010870B51646E0
:103A30000A6883689A4212D004460D4636B1A368DC
:103A4000336055B12B68A360012070BD054A40F278
:103A500065210548FFF72CFFF1E70023F3E700207D
:103A6000F3E700BF446901087469010808B501F073
:103A7000BFFA08BD38B50C46054670B195F82D3033
:103A800003F00502052A07D114F0010F04D02A68BB
:103A900012B113F0080F07D138BD064A40F2993130
:103AA0000548FFF705FFE9E72946284605F0C2F972
:103AB000F2E700BF446901088469010870B582B06B
:103AC000044615460E4639B16DB1326823689A42F4
:103AD00010D1002002B070BD114A4FF4EE711148B0
:103AE000FFF7E6FEF0E70E4A40F2DD110D48FFF762
:103AF000DFFEEAE7019223682B6001A92846FFF761
:103B0000B5FF5EB13368236001212046FFF7B2FFA5
:103B1000A3690BB1204698470120DBE70023F2E7B9
:103B20004469010874690108704700BF10B5044674
:103B300007F034FF014B1C6010BD00BF3051002066
:103B400010B5044607F02AFF54B1064B186830B18F
:103B500090F830300133DBB2A34200D0002010BD1A
:103B60000020FCE73051002010B5044607F016FF96
:103B7000F4B1A01C11F02CF810F0FF0303D194F95C
:103B80000220302A16D10E4A1068B0B190F83020C9
:103B90009A4211D194F9002090F92E309A420DD119
:103BA00094F9012090F92F309A4206D0002004E0C9
:103BB000204602E0002000E0002010BD0020FCE7CD
:103BC000305100202DE9F0410E4617460A4B1C6883
:103BD000804668B9094A40F247710948FFF768FE14
:103BE00006E0656823683A463146404698472C46C9
:103BF000002CF6D1BDE8F0812C5100204469010869
:103C0000A86901082DE9F04387B006460D469146A4
:103C10001F4607F0C3FE95B1B9F1000F11D09FB157
:103C20000DB12B6893B96A4629463046FFF746FF27
:103C300090B3CDF80CD04FF00108102409E0214DCD
:103C4000EAE7DFF88090EAE71E4FE9E74FF0000867
:103C5000444602AA49463046FFF7C8FE18B144F070
:103C6000400402AB049301AA39463046FFF7DEFE5A
:103C700018B144F0200401AB0593B8F1000F0FD048
:103C80000CB144F08004B8F1000F01D144F4806419
:103C900094B907B0BDE8F0834FF001080024D8E7DD
:103CA0006A4629463046FFF709FF0028E8D044F06D
:103CB0001004CDF80CD0E3E703AA21463046FFF705
:103CC00081FFE6E79C8101082DE9F84304460D4693
:103CD00017469846099E07F061FE224BD3F80090E4
:103CE000B9F1000F2CD1002C3AD036B3002D30D0D2
:103CF000002F30D0B8F1000F2FD00020206060607E
:103D0000A060194B2361A08484F82D00A061E061BC
:103D1000089B236284F830000A9BE36043463A46DE
:103D200029462046FFF76EFF2046B04728B90022FB
:103D300001212046FFF746FFA1464846BDE8F8832B
:103D40000A4A40F22D110A48FFF7B2FD4FF0000970
:103D5000F3E7084DCCE7074FCCE7DFF81880CCE756
:103D6000A146EAE730510020E5390008446901081E
:103D7000C06901089C81010810B584B0044607F0B1
:103D80000DFEC4B194F82D3013F0010F13D143F0A0
:103D9000010384F82D30A3690BB120469847012315
:103DA0008DF8043001AA08212046FFF70BFF0321FC
:103DB0002046FFF75FFE04B010BD00BF10B584B011
:103DC000044607F0EBFD24B194F82D3013F0040FF6
:103DD00001D004B010BD43F0040384F82D3003215A
:103DE0002046FFF747FEE3690BB1204698470123C1
:103DF0008DF8043001AA04212046FFF7E3FEE8E72E
:103E000010B584B0044607F0C9FDA4B194F82D3074
:103E100013F0040F0FD003F0FB0384F82D30E36997
:103E20000BB12046984700238DF8043001AA0421E5
:103E30002046FFF7C7FE04B010BD00BF10B4002439
:103E400004604160028143819DF8043003739DF852
:103E50000830437301238373C4735DF8044B7047C8
:103E600070B50C4616460546C8B1002D18BFB4F50E
:103E7000803F23D224B3A2B22B8913449BB2934236
:103E800020D395F90C10002910DBEEB169680C1BEA
:103E90006C6069890A446A812B8100200FE00B4A1B
:103EA0004FF4F1710A48FFF703FDDEE769680C1B68
:103EB00005F11001A142EBD9012000E0012070BD05
:103EC0000020FCE70120FAE70120F8E7DC6901089F
:103ED0007492010810B507F0BFFE0B4B1C78E4B2DA
:103EE00001221A7007F0C2FE04B110BD002107487C
:103EF00007F0D0FB0028F8D007F0AEFE024B0022FE
:103F00001A7007F0B3FEF0E734510020413F00087B
:103F100008B507F0A1FE084B00221A7007F0A6FEB4
:103F2000064B186800E0C06820B1436F002BFAD040
:103F300000F0CEFE08BD00BF3451002038510020F3
:103F400008B5FFF7E5FF08BDF0B583B006460D469E
:103F50001446412A18BF012A0FD10B2009F0C8FAD4
:103F6000074638B10023019300942B462A46314678
:103F7000FFF764FF384603B0F0BD034A4FF4A57164
:103F80000248FFF795FCE8E7DC6901080C6A0108C4
:103F900030B583B08E461C46069900F1030C2CF018
:103FA000030C0EEB0C00BDF81C3098420DD801B18B
:103FB00061442546022301930092734672462046CF
:103FC000FFF73CFF284603B030BD0025FAE700BFED
:103FD00008B50022FFF744FF08BD00BF38B50C4606
:103FE000054698B1002D18BFB4F5803F15D2B4B185
:103FF000A2B26B89934214D36968214469609B1A09
:104000006B812B899A1A2A81002007E0064A40F228
:104010004E210648FFF74CFCE4E7012038BD0020A4
:10402000FCE70120FAE700BFDC690108749201088F
:1040300008B5002902DBFFF713FF08BD4942FFF76F
:10404000CDFFFAE708B50122FFF7F2FF08BD00BF78
:10405000F8B510B10446002615E0294A40F2DE21E9
:104060002848FFF725FC00263046F8BD244A40F2D8
:10407000F3212548FFF71CFC0DE0236920469847F3
:104080000136F6B22C46002CEED007F0E5FD0746CF
:10409000A37B002BEAD0A57B013DEDB2A57338468A
:1040A00007F0E4FD002DDFD12568237B03F00F032B
:1040B000627B12F0020F09D02369002BDDD1104A78
:1040C00040F201311148FFF7F3FBD6E7022B06D08F
:1040D000012B09D06BB9204609F0A8F9D0E7214699
:1040E0000C2009F013FACBE721460B2009F00EFA59
:1040F000C6E7034A40F211310548FFF7D9FBBFE795
:10410000DC69010874920108206A0108386A010814
:104110005C6A01082DE9F04F83B00E469046B2F577
:10412000C17F3FD004460ED8012A02D0412A40F078
:104130008C80424631460020FFF706FF8146484604
:1041400003B0BDE8F08FB2F5207F7ED1C31C23F011
:104150000303CA1C22F00302134403F110009A4225
:104160007CD882427DD809F047F981460028E6D004
:1041700004F110010144033100230193CDF80080C4
:104180003346324621F00301FFF758FED9F80430D8
:1041900013F0030FD3D0344A4FF491713348FFF733
:1041A00087FBCCE785B20027B9461AE0FFF792FEFD
:1041B000B9F1000F02D04846FFF74AFFB946BEE703
:1041C0000BF1030B2BF0030BBBF5807F34D0B9F15F
:1041D000000F38D0CAF80070361BB6B20025002E8A
:1041E000ADD0BA460C2009F083F907460028DDD08F
:1041F000EC1C24F00304A4B2C4F58074A4B2B4424D
:1042000028BF3446AB4605F11001014403310023B9
:104210000193CDF800802346324621F00301FFF7D9
:104220000DFE7B6813F0030FCAD00F4A4FF4807164
:104230000F48FFF73DFBC3E70B4A4FF481710D4870
:10424000FFF736FBC3E7B946C6E7074A40F2271136
:104250000948FFF72DFB4FF0000970E74FF0000908
:104260006DE74FF000096AE7DC690108D46A0108CC
:10427000706A0108A06A0108006B0108F8B50E46D3
:104280000446B0B12789B7422CD935466389AB4281
:1042900016D2EB1A9DB22389F21B134423812468A2
:1042A000002CF3D11C4A40F2AF111C48FFF700FB71
:1042B000ECE7194A4FF4CC711948FFF7F9FAE1E736
:1042C000227B12F00F0F05D1AB4203D0637B13F0BA
:1042D000020F08D065812581206808B1FFF7B8FE7C
:1042E00000232360F8BD63681B1BE918204609F012
:1042F00081F8064640B1B442ECD0074A40F2BF1103
:104300000848FFF7D5FAE5E7034A40F2BD11064831
:10431000FFF7CEFAEFE700BFDC690108346B010854
:104320001C6B0108686B01084C6B010870B50546F1
:104330000C4604E021462846FFF750FE0024002CDE
:1043400018BF002D0CD06989A142F3D8641AA4B219
:104350002E6800232B602846FFF77AFE3546EEE7ED
:10436000284670BD0346002002E0013080B21B6881
:10437000002BFAD1704700BF90B110B5044607F08A
:104380006BFCA37B0133A37307F070FCA37B03B129
:1043900010BD044A4FF451710348FFF789FAF7E75B
:1043A000704700BFDC690108846B010838B504461A
:1043B0000D46002918BF002805D118E02389298956
:1043C0000B44238114462268002AF7D1228963898D
:1043D0009A420DD123682BB1094A40F26531094850
:1043E000FFF766FA23892A8913442381256038BDA3
:1043F000034A4FF459710448FFF75AFAEAE700BF3D
:10440000DC690108C86B0108986B0108002977D0A6
:104410002DE9F8430646914698460D460A894A45D5
:1044200071D3002872D002894B449A4271DB002775
:1044300023E03C4A40F2F7313B48FFF739FA38E0D5
:10444000384A4FF47E713948FFF732FA34E0366863
:10445000B6FA86F35B09B9F1000F08BF0023002B01
:104460005DD14FF0000837E02B68002B39D06FF09A
:10447000050043E0B9F1000F3FD07489A4EB0804B4
:104480006B89DB1B9C4200D31C464C4528BF4C4625
:1044900070686968224639444044FEF7C5FAA04472
:1044A0002744A4B2A9EB04041FFA84F97389434595
:1044B000BFD36B89BB42C3D36B89BB4209D82D687C
:1044C000B5FA85F35B09B9F1000F08BF00231BBBE8
:1044D000002773894345BAD01DB16A892B899A4256
:1044E000C2D0002EC6D0728933899A42C2D13368B5
:1044F000002BBFD06FF0050000E00020BDE8F8837E
:104500006FF00F0070476FF00F00F7E76FF00F00CC
:10451000F4E76FF00F00F1E76FF00F00EEE76FF0D8
:104520000F00EBE7DC690108D86B0108F06B0108AC
:1045300029B108B500230A89FFF768FF08BD6FF0AD
:104540000F0070472DE9F84350B388469146054661
:1045500051B300273E4616E06C89E41AA4B2A14587
:1045600000D24C4669682246194408EB0600FEF763
:104570005BFA2744BFB22644B6B2A9EB04041FFA83
:1045800084F900232D68B9F1000F18BF002D08D061
:10459000002BE1D069899942DED85B1A9BB2F1E722
:1045A00000273846BDE8F8830027FAE738B51446F7
:1045B0000A462189FFF7AEFD054618B12146FFF7EF
:1045C000B7FF08B9284638BD034A40F243510348B3
:1045D000FFF76EF9F6E700BFDC6901080C6C010813
:1045E0004FF0000C0BE0164B4FF440421A800FE0E6
:1045F0000CF1010C1FFA8CFCBCF5804F1DD2104A47
:10460000138801339BB213804FF6FF729342EAD0B6
:10461000002003280ED80B4B53F820301B6833B111
:10462000D98A074A12889142E2D0DB68F7E7013065
:10463000C0B2EEE7024B188870470020704700BFF9
:1046400050230020A471010838B504460D4631B945
:10465000074AFF210748FFF72BF900E0E4682CB177
:10466000E36FAB42FAD10023E367F7E738BD00BF41
:10467000206C01084C6C010838B5054620B12B7D33
:10468000012B08D1012415E00C4A40F211110C480D
:10469000FFF70EF9F3E7094A4FF489710948FFF76C
:1046A00007F9EFE7084B53F8243029461868FFF75D
:1046B000CBFF0134032CF5D938BD00BF206C0108B5
:1046C000746C0108806C0108A471010810B50446DF
:1046D000037D012B04D02146012008F017FF10BDF7
:1046E000024ADF210248FFF7E3F8F4E7206C0108F3
:1046F000986C010808B507F00DF9024B0343024A14
:10470000138008BD00C0FFFF5023002010B50446F1
:10471000037D012B04D02146002008F0F7FE10BDD8
:10472000024AD4210248FFF7C3F8F4E7206C0108DD
:10473000B46C010810B5044690B107F02FF9638BF3
:1047400013F4007F0BD1E36F4BB15A7F01325A77DC
:10475000E36F5B7F5BB1638B43F40073638310BDD6
:10476000064A4FF494710648FFF7A2F8E5E7034ABA
:1047700040F22D110348FFF79BF8ECE7206C01088D
:10478000746C0108C86C010810B5044690B107F0BC
:1047900005F9638B13F4007F0BD0E36F4BB15B7FA4
:1047A0007BB1E26F537F013B5377638B23F400733C
:1047B000638310BD064A40F23F110648FFF778F8C0
:1047C000E5E7034A40F243110348FFF771F8E8E7D1
:1047D000206C0108746C0108C86C010838B50546E6
:1047E00048B12B7D042B22D0072B29D0032B09D0D5
:1047F0000024204638BD194A4FF4CE711848FFF7FF
:1048000057F8EEE7284603F035FC044648B104B3F8
:10481000B4F1FF3FEDD16B8B43F008036B830024B1
:10482000E7E72846FFF7B0FF05232B75EFE728469B
:1048300003F020FC04460028E9D105232B75E6E7A8
:10484000284603F017FC04460028E0D109232B7505
:10485000DDE7284603F068FDCBE700BF206C0108C8
:10486000746C0108094B186878B110B501E0204656
:1048700054B1C468438B13F0080FF8D023F0080339
:104880004383FFF7ABFFF2E710BD704738510020BC
:1048900070B506460D46144607F080F85DB186B344
:1048A000337D8BBB4CB1002003280ADC1F4B53F82F
:1048B00020301B6813E01E4DF1E7FFF791FE044620
:1048C00028B315B12B6803B13360F482194B1A6811
:1048D000F2601E6003F0B6FF002070BDDB6873B1AC
:1048E000B3F816C0A445F9D1A3B11A68AAB1BDB1F5
:1048F0002968C1B18A42F1D16FF00700EDE70130BC
:10490000D2E76FF00F00E8E76FF00500E5E76FF022
:104910000100E2E76FF00700DFE76FF00700DCE778
:104920006FF00700D9E76FF00700D6E7A471010820
:104930009C8101084051002038B505460C4607F01F
:104940002DF824B194F8303001332B7238BD002398
:104950002B72FBE7F8B504460F46164607F01EF823
:10496000002C4FD0237D002B50D1012B52D00120A1
:1049700008F0BEFD0546002850D023690361E38A94
:10498000C38201230375637D4375637A4372237A7F
:104990000372E37AC372A37A837223680360E38AA3
:1049A0008BB1204B1B68A34205D053B1DA68A242F9
:1049B00005D01346F9E7DA681A4B1A6001E0E2689D
:1049C000DA600023E3602046FFF7A0FE164BAB61E0
:1049D00000236B772B7D012B0DD107B901272F7792
:1049E000124B1A68EA601D6003F02CFF002306B129
:1049F00033702846F8BD0E4A4FF465710D48FEF736
:104A000057FFEAE725466FF00F03F0E76FF00E035C
:104A10000025ECE725466FF00803E8E74FF0FF3389
:104A2000E5E700BF40510020054F00084451002039
:104A3000206C0108E06C010838B5044698B1656A3D
:104A4000218D6818E36AB4F832E041F2707CE645E3
:104A500094BF03EB0E0203EB0C02821A002A09DB5F
:104A60006185C01A38BD0C4A40F2AA310B48FEF7E6
:104A70001FFFE4E75D1B05D4B5F5803F05D26585D2
:104A80000020EFE700236385FAE7034A40F2BA31DA
:104A90000348FEF70DFFF2E7206C0108106D0108D6
:104AA000346D010838B504460D4606F077FFACB109
:104AB000237D012B13D0238D591989B242F6E06270
:104AC000914201D88B4211D942F6E06323852046FA
:104AD000FFF7B2FF40F6B733984209D838BD084A0D
:104AE00040F2D6310748FEF7E3FEE4E72185EEE722
:104AF000638B43F002036383204603F015FCEDE76C
:104B0000206C0108506D010850B110B50446406892
:104B100008B1FFF79DFA2146022008F0F7FC10BD0E
:104B2000704700BF38B110B50468FFF7EDFF2046AD
:104B3000002CF9D110BD704738B5054688B1022068
:104B400008F0D6FC044650B128686968AA68EB688A
:104B500020606160A260E3606068FFF70DFC2046A2
:104B600038BD034A40F286610248FEF7A1FEE6E73F
:104B7000206C0108786D010838B504460D4606F032
:104B80000DFF04B1256138BD38B504460D4606F069
:104B900005FF24B1237D012B02D0C4F8845038BD19
:104BA000034A4FF4FD610348FEF782FEF5E700BFBC
:104BB000206C0108946D010838B504460D4606F0D6
:104BC000EDFE24B1237D012B02D0C4F8805038BD06
:104BD000034A40F2FC710348FEF76AFEF5E700BFA6
:104BE000206C0108BC6D010838B504460D4606F07E
:104BF000D5FE24B1237D012B02D0C4F8905038BDDE
:104C0000034A40F616010348FEF752FEF5E700BFDF
:104C1000206C0108E46D010838B504460D4606F025
:104C2000BDFE14B1237D012B00D038BDA561FCE78A
:104C300070B504460E46154606F0B0FE2CB1237D35
:104C4000012B03D0C4F88C60657770BD034A40F631
:104C500048010348FEF72CFEF4E700BF206C010872
:104C60000C6E010808B530B1064B1868064A126888
:104C70001044186008BD054A40F6B9010448FEF723
:104C800017FEF1E74C23002048510020206C01085A
:104C90002C6E010838B505460C465AB144B1A38CB8
:104CA00033B1282B0DD9283B9BB29D4228BF1D460E
:104CB000284638BD044A40F6CF010448FEF7F8FD07
:104CC000ECE70023F1E700BF206C0108486E010803
:104CD00010B50446406F18B1FFF724FF0023636747
:104CE00010BD00BF28B310B50446037D002B18BFCC
:104CF0000A2B01D0012B00D110BDFFF745FDA06F9D
:104D000018B1FFF7A5F90023A367636F13B120461D
:104D1000FFF7DEFF4FF6FF732386E06EFFF702FF1B
:104D2000206FFFF7FFFE0023E3662367A4F86830D7
:104D3000E2E7704738B505460C4649B17DB12B68AE
:104D4000A34213D0BBB1DA68A24212D01346F9E7EE
:104D5000234A40F68D012348FEF7AAFDEEE7204ADC
:104D600040F68E012048FEF7A3FDE8E7DB682B60E4
:104D700001E0E268DA600023E3602046FFF7B2FF5B
:104D8000237D0A2B18BF012B03D0638B13F0010F77
:104D90001ED1237D012B17D0E36E2BB1104A40F6B4
:104DA0009D011248FEF784FD236F2BB10C4A40F69B
:104DB0009E010F48FEF77CFD636F2BB1084A4FF44C
:104DC0000A610C48FEF774FD00232375E38238BDA9
:104DD00043F002036383204603F0A6FAD9E700BF3D
:104DE000206C0108706E01088C6E0108AC6E010821
:104DF000C46E0108E06E01082DE9F04784B0044656
:104E00000D4606F0CBFD002C4DD0237D012B1AD092
:104E1000237D0A2B1ED0D4F85080D4F82490D4F8E7
:104E200090602769002B41D1B4F816A0BAF1000FA9
:104E300046D02B4B1B68A34214D0CBB1DA68A242F8
:104E400014D01346F9E7274A4FF410712648FEF7AD
:104E50002FFDDDE721462548FFF76CFF2046FFF7D1
:104E600055FC20E0DA681E4B1A6001E0E268DA6067
:104E70000025E560AA46206F08B1FFF753FEE06EFB
:104E800008B1FFF74FFE606F08B1FFF74BFE2046F9
:104E9000FFF77AFCB5B92046FFF738FC1EB16FF07A
:104EA0000C013846B04704B0BDE8F087B4F816A04E
:104EB00021460F48FFF73EFF0E4B01221A70DAE73A
:104EC0000025D8E7231D228B0292CDF804A0009381
:104ED00023464A464146204603F0BAF9DBE700BFC5
:104EE00040510020206C0108F86E0108505100204C
:104EF000385100203C51002008B50121FFF77CFF0C
:104F000008BD00BF10B50C4629B12046FFF7F4FFDD
:104F10006FF00C0010BD034A4FF444710248FEF7D5
:104F2000C7FCF2E7206C01082C6F010808B50A4B9A
:104F30001B684FF0000C604600E0DB6843B1196A63
:104F4000064A1268521A6245F7D394461846F4E7A7
:104F500008B1FFF7D1FF08BD505100204851002093
:104F600010F0800F01D108B970477F2038B50138A3
:104F7000C2B20F4B1B684FF0000C604607E00D4AB1
:104F80001268186AA2EB000C0A461846DB685BB18F
:104F9000597D9142F3D3F9D1064C24681D6AA4EBE4
:104FA000050EE645F2D3EAE708B1FFF7A5FF38BDE5
:104FB000385100204851002070B50C46054658B9BC
:104FC000094A40F60A110948FEF772FC04E0E66857
:104FD0002046FFF791FF34462CB122682B689A4295
:104FE000F5D0E468F8E770BD206C01084C6F01084B
:104FF00000B338B50D460446036803B938BD0E4BFF
:105000001968FFF7D9FF0D4B19682046FFF7D4FF49
:10501000002DF3D02B68002BF0D0094B1B6800E06B
:10502000DB68002BEAD0196822689142F8D12A681F
:105030001A60F5E7704700BF38510020405100204A
:105040004451002038B50446A0F10803DBB2012B1F
:1050500004D80F4B1B680021084607E00D4A40F2B8
:10506000E1610D48FEF724FCF3E7DB685BB11A7DD4
:10507000A242FAD1094A12681D6A521B8A42F4D32D
:1050800011461846F1E710B10021FFF7B5FE38BD13
:1050900038510020206C0108806F01084851002021
:1050A00038B5054606F07AFC002008F021FA0446DF
:1050B00058B344B39C2200212046FDF7EFFC6575F0
:1050C00042F6E063A4F8643063852385FF22E27230
:1050D0004FF4067262860622A4F84020E2874FF65B
:1050E000FF7222860122A4F848201A4A126822621E
:1050F000194A1278A277A4F84A30184BC4F88430C1
:10510000174BC4F89430204638BDFFF7ABFBFFF7D0
:105110000DFF002008F0ECF904460028C9D1092051
:10512000FFF790FF002008F0E3F904460028C0D103
:105130000820FFF787FF002008F0DAF9044600286E
:10514000B7D12846FFF70CFF002008F0D1F904463C
:10515000AFE700BF485100204D510020D952000850
:1051600000DD6D0008B54020FFF79AFF08BD00BFC5
:1051700030B585B00D46044620B37DB3237D072BA3
:1051800018BF042B2AD1A36F1BB3638B13F0100F2E
:105190002ED0231D228B0292E28A01920093234695
:1051A000626A216D204603F053F82046FFF79AFD0E
:1051B000374B1B68A34222D03BB3DA68A24222D00D
:1051C0001346F9E7334A4FF4AF713348FEF770FBEB
:1051D000D3E7228D42F6E0639A42D6D1237D012B9C
:1051E0003ED0022B48D00BB32046FFF7F7FA35E04C
:1051F000284A4FF4B2712948FEF75AFBC9E7DA682A
:10520000234B1A6001E0E268DA600023E360244B7C
:1052100001221A70234B1B68A34204D02046FFF7DB
:1052200075FA00201AE001F0F3FFFAE7E38A8BB188
:105230001D4B1B68A34205D053B1DA68A24205D0CA
:105240001346F9E7DA68184B1A6001E0E268DA60A1
:105250000023E3602046FFF759FA002005B030BD77
:105260002046FFF709FA21461048FFF763FD204664
:10527000FFF72CFA0020F1E721460548FFF75AFD19
:10528000074B01221A702046FFF740FA0020E5E79D
:1052900038510020206C0108906F0108B06F0108A0
:1052A0003C5100207C5100204051002044510020FE
:1052B00010B5044606F072FB5CB1237D012B03D0D0
:1052C000638B43F01003638301212046FFF750FFF7
:1052D00010BD6FF00F00FBE789B110B5144608460A
:1052E0003AB11189FFF7DEFB2046FEF7B1FE002040
:1052F00010BD0BB10020FBE7FFF7DAFFF8E76FF016
:105300000F007047F8B5A0B30446866F777B002383
:105310008367D0F88450E5B1324601460069A8475A
:105320000546F5B917F0200F21D0238D42F6E06233
:10533000934201D001332385D4F88460BEB10023A9
:105340001A4621462069B04710F10D0F0FD10546CE
:105350000DE00023324601461846FFF7BDFF054623
:10536000DFE715F10D0F02D0A6676FF004052846A0
:10537000F8BD6FF00F05FAE770B51C4A13780133DA
:1053800013701B4B1C6813E043F002036383204639
:1053900002F0CAFF638B23F00303638313E023F05F
:1053A000080363832046FFF719FA10E0E5682C46EE
:1053B000DCB1A27F0D4B1B789A42F7D0A377638BA9
:1053C00013F0010FE0D1638B13F0080FE7D1E5680C
:1053D000A36F002BEBD0074E002333702046FFF75E
:1053E00091FF3378002BE2D0CBE770BD4D51002008
:1053F000385100203C51002070B504460D46164639
:1054000006F0CCFA1CB3237D012B23D055B1638B5E
:1054100043F01003638376B9A06F18B1FEF718FE4E
:105420000023A367CEB1237D042B09D8032B09D217
:105430006FF00A0012E001212046FFF799FE0DE00F
:10544000072B0CD1E9B22046FFF792FE06E06FF081
:105450000F0003E06FF00A0000E0002070BD6FF065
:105460000A00FBE72DE9F04184B0A94A1368013333
:105470001360A84A137801331370A74B1C680025EA
:105480008CE1A64A40F2C241A548FEF711FA8BE131
:10549000A24A40F2C341A348FEF70AFA88E19F4AB4
:1054A00040F2C441A048FEF703FA85E12546E468CE
:1054B00074E194F84230032B40F2898101266DE0BB
:1054C000964A40F2D9419948FEF7F2F995E1204613
:1054D00002F052FC58B1002384F8983094F89930C7
:1054E000062B7CD8013384F89930002656E02046FC
:1054F00002F01AFF0028EED100264FE0B4F9303058
:105500009BB247F6FE72934201D801332386B4F969
:105510003020B4F940309A4240DB204602F0D8FDFA
:1055200020B1236F002B39D1E36EBBB3237D022B57
:1055300014D094F842200C2A28BF0C22B4F93C1055
:10554000B4F93E3003EBE10379498A5C934047F6B6
:10555000FE7293421EDC1BB2A4F840300023238667
:10556000B4F86030B4F84820934228BF13465B0873
:10557000A4F84A30618E4A0092B2934201D2A4F854
:105580004A20A4F848100023A4F86A30204603F00B
:105590001FF803E047F6FF73DEE70126237D062BA5
:1055A0001FD0627A12F0080742D0072B18BF042BD5
:1055B0003DD1574B1A68236AD21AD4F894105D4B28
:1055C0000B445D48A0FB0303B2EB531F16D9013611
:1055D000F6B201272CE00126E0E70026DEE70026F0
:1055E000DCE7628B12F0100FDBD0216A484A1268A8
:1055F000521A282AD5D90136F6B2D2E794F89B3050
:105600004E4800FB03114C4BA3FB0131B2EB511F81
:1056100001D800270CE0204603F00CF800283AD10E
:1056200094F89B30013384F89B30002700E000277A
:10563000636F53B1236A364A1268D21AB4F9403004
:1056400003EB4303B2EB430F27D2237D032B28D078
:10565000092B2FD0002E36D1E668237F0133DBB231
:105660002377627F9342C0F0978000232377344AE8
:105670001370D4F88C30002B00F08680214620690E
:1056800098472F4B1B78002B7FF4F7AE00287DD076
:105690002546344682E00027CAE72046FFF718FB7C
:1056A000D3E7216A1A4A1268521A282AD0D9013639
:1056B000F6B2CDE7226A164B1B689B1AF02BC9D9AC
:1056C0000136F6B2C6E7D4F890602046FFF70AFB31
:1056D000002D3ED0104B1B68A34233D0E368EB6033
:1056E000002F44D1D4F81080E7682046FFF70EF869
:1056F000134B00221A701EB16FF00C014046B047E8
:105700000F4B1B78002B7FF4B8AE3C4646E000BF41
:10571000485100204D51002038510020206C0108D4
:10572000CC6F0108F86F010824700108847001082B
:1057300094710108B84C0A00D34D6210F82401009E
:105740003C5100205D4A40F271515D48FEF7B0F8CF
:10575000C4E75C4B1B68A34205D0584A40F2755120
:105760005948FEF7A5F8E268564B1A60B8E7231DC2
:10577000626A216D208B0290E08A0190009323469B
:10578000204602F065FDADE700207AE7204602F0F2
:10579000CBFD2546344601E025463446002C4FD04B
:1057A000237D002B3FF46DAE237D012B3FF470AEC3
:1057B000237D0A2B3FF473AEA27F444B1B789A42A1
:1057C0003FF474AEA377237D022B3FF472AE94F8BE
:1057D00042300B2B3FF6E1AE94F89960002E3FF477
:1057E0008DAE236F2BB1354A4FF49B613848FEF7DD
:1057F0005FF8E36E002B3FF463AE94F89A300B2B06
:105800003FF6E9AE94F89930013B324AD25C94F805
:105810009830934202D2013384F8983094F898304B
:105820009342FFF4DAAEB4F8601000297FF44FAE73
:10583000204602F029FF00283FF44DAE0026ADE6D9
:10584000254B1D6807E02A6A244B1B689B1AF02B26
:105850000CD82C46ED6875B32B7D0A2BF3D0174A74
:1058600040F2A5511E48FEF723F8ECE72846FFF763
:1058700039FA94B1184B1B68AB4207D0EB68E36070
:10588000EE682846FEF742FF3546E4E70B4A40F251
:10589000B3511448FEF70CF8F0E70F4B1B68AB420E
:1058A00005D0064A40F2B7510F48FEF701F8EA6802
:1058B000094B1A60E4E704B0BDE8F081206C0108F0
:1058C000BC70010838510020E87001084D510020DB
:1058D00050700108B4710108505100204851002057
:1058E00014710108447101086C71010808B5FFF7D3
:1058F00043FD064A13780133DBB2137013F0010F36
:1059000000D108BDFFF7AEFDFBE700BF4C51002002
:105910000A4A1388591C1180094A116819B1094AA9
:105920001288934204D2084A12681344187D7047C3
:10593000DBB2D2B29B1ADBB2C85C70478051002048
:105940008C510020885100208451002038B5044635
:10595000E8B1214B1B88002B3DD0204B00221A8040
:105960001E4B1A881C4B1B889A4234D2FFF7D0FF7B
:105970000128F5D0022811D068B3FFF7C9FF01282C
:1059800029D9164B1A88104402381880E8E7144ABF
:1059900040F283711348FDF78BFFDAE7FFF7B8FF9A
:1059A000042818D10D4B1B8801330B4A12889342EF
:1059B00011DAFFF7ADFF85B22D02ADB2FFF7A8FFF8
:1059C00080B205436B1E9BB2B3F5806F01D34FF4D9
:1059D00080656586C4E738BD905100208051002065
:1059E000BC710108EC71010810B5044630B1114BCF
:1059F0001B7813F0100F08D1002010BD0E4A40F2A2
:105A00005A210E48FDF754FFF1E7638B13F0100F96
:105A100006D1D4F890301BB16FF00E012069984781
:105A200021460748FFF786F92046FEF76FFE012062
:105A3000E3E700BF74510020BC710108087201083F
:105A400038510020224B1B7813F0040F3FD130B5A2
:105A500085B0044608B31E4B1B7813F0020F23D009
:105A60001C4B1A68636AD11A002923DB218D0B4471
:105A70009B1A002B1EDB184B1968184B184800881E
:105A80000D88029549880191191F0091024415491A
:105A90000968204602F0DCFB0FE0134A40F2F121D6
:105AA0001248FDF705FFD6E713F0010F02D0104BA7
:105AB0001B6823620A4B1B880BB905B030BD638B92
:105AC00043F002036383204602F02EFCF5E77047A3
:105AD00058510020785100208451002004570020A4
